:100000000C946F000C9497000C9497000C9497003C
:100010000C9497000C9497000C9497000C94970004
:100020000C9497000C9497000C9497000C949700F4
:100030000C9497000C9497000C9497000C949700E4
:100040000C94DA0A0C9497000C944A0B0C94240B31
:100050000C9497000C9497000C9497000C949700C4
:100060000C9497000C949700084AD73B3BCE016E46
:1000700084BCBFFDC12F3D6C74319ABD56833DDAFF
:100080003D00C77F11BED9E4BB4C3E916BAAAABE0E
:10009000000000803F072C7AA5BA6CC590DA3B932C
:1000A00065FC8BBC53F810FD3C5692834DBD879D7B
:1000B0003AB63DCBC9BF5BBE73DA0FC93F05A84C4A
:1000C000CDB2D44EB93836A9020C50B99186880801
:1000D0003CA6AAAA2ABE000000803F00E70D11241A
:1000E0001FBECFEFD8E0DEBFCDBF21E0A0E1B1E081
:1000F00001C01D92AF3CB207E1F711E0A0E0B1E012
:10010000EAEEF3E202C005900D92A031B107D9F7F3
:1001100010E0CFE6D0E004C02197FE010E94E81174
:10012000CE36D107C9F70E947C0B0C94F3110C94C6
:1001300000000F931F93CF93DF938C01C0E0D0E0BA
:100140002FB7F89480912E0190912F01A09130014A
:10015000B09131012FBF80933A0190933B01A0935E
:100160003C01B0933D01E0913201F09133010680F2
:10017000F781E02D82E391E0099597FD0BC0F8012E
:1001800081938F01219719F0C1E0D0E0D9CFC2E06F
:10019000D0E024C08FB7F89440912E0150912F01E8
:1001A00060913001709131018FBF80913A0190913F
:1001B0003B01A0913C01B0913D01481B590B6A0BDA
:1001C0007B0B8091360190913701A0913801B0915D
:1001D0003901481759076A077B0728F2CE01DF91DA
:1001E000CF911F910F910895CF92DF92EF92FF92DE
:1001F0000F931F93CF93DF936C017A018B01C0E0C3
:10020000D0E0CE15DF0589F0D8016D918D01D601C2
:10021000ED91FC910190F081E02DC6010995892BAB
:1002200011F47E0102C02196ECCFC701DF91CF917E
:100230001F910F91FF90EF90DF90CF900895FC01F8
:10024000918D828D981761F0828DDF01A80FB11D0D
:100250005D968C91928D9F5F9F73928F90E0089531
:100260008FEF9FEF0895FC01918D828D981731F0EB
:10027000828DE80FF11D858D90E008958FEF9FEF3F
:100280000895FC01918D228D892F90E0805C9F4F15
:10029000821B91098F739927089582E391E00E9450
:1002A000410121E0892B09F420E0822F0895FC010F
:1002B000848DDF01A80FB11DA35ABF4F2C91848DEF
:1002C00090E001968F739927848FA689B7892C9324
:1002D000A089B1898C9180648C93938D848D9813BF
:1002E00006C00288F389E02D80818F7D8083089588
:1002F000EF92FF920F931F93CF93DF93EC0181E076
:10030000888F9B8D8C8D981305C0E889F989808131
:1003100085FD24C0F62E0B8D10E00F5F1F4F0F736D
:100320001127E02E8C8DE8120CC00FB607FCFACF17
:10033000E889F989808185FFF5CFCE010E945701B8
:10034000F1CF8B8DFE01E80FF11DE35AFF4FF082D4
:100350000B8FEA89FB898081806207C0EE89FF8963
:100360006083E889F98980818064808381E090E0FE
:10037000DF91CF911F910F91FF90EF900895CF9350
:10038000DF93EC01888D8823C9F0EA89FB8980819D
:1003900085FD05C0A889B9898C9186FD0FC00FB66F
:1003A00007FCF5CF808185FFF2CFA889B9898C91B0
:1003B00085FFEDCFCE010E945701E7CFDF91CF91AE
:1003C000089580E090E0892B29F00E944D01811171
:1003D0000C94000008958F929F92AF92BF92CF929B
:1003E000DF92EF92FF920F931F93CF93DF938B01D6
:1003F000D82FC92F49015A010E945B1118161CF011
:100400006401750103C06801ED2EFC2E9401A50165
:10041000B8018D2F9C2F0E94140E87FD03C084010C
:10042000DA2DCB2D98014D2F5C2FB601C7010E940C
:10043000490FDF91CF911F910F91FF90EF90DF90C7
:10044000CF90BF90AF909F908F9008952F923F9242
:100450004F925F926F927F928F929F92AF92BF92D4
:10046000CF92DF92EF92FF920F931F93CF93DF9380
:10047000CDB7DEB7A4970FB6F894DEBF0FBECDBFE1
:10048000A986BA86CB86DC86ED86FE860F87188B1A
:10049000298B3A8B4B8B5C8B6D8B7E8B8F8B988FE4
:1004A000A9A2BAA2CBA2DCA2DE2CCF2C302E212E08
:1004B000122FF32E042FE52E6D8F7E8FAF89AF8F15
:1004C000B88DB8A38091260190912701A0912801B1
:1004D000B0912901898F9A8FAB8FBC8F95014BA169
:1004E0005CA1BC01CD010E94EB014B015C0140907D
:1004F0002A0150902B0160902C0170902D012D2D20
:100500003C2D432D522DC301B2010E94EB019B01F2
:10051000AC01C501B4010E944A0F20E030E040E088
:100520005FE30E947A0E4B015C01212F3F2D402F8B
:100530005E2D698D7A8D8B8D9C8D0E94EB01698F6C
:100540007A8F8B8F9C8F2D8D3E8D4F8D58A1C3013F
:10055000B2010E94EB019B01AC01698D7A8D8B8DFC
:100560009C8D0E944A0F20E030E040E05FE30E9453
:100570007A0E2B013C019B01AC01C501B4010E9424
:10058000140E18166CF4A3019201C501B4010E9467
:10059000140E18164CF4DD8CCE8C3F8C28A004C0B1
:1005A00019A1FAA00BA1ECA0812F9F2DA02FBE2D89
:1005B00089839A83AB83BC838D2D9C2DA32DB22D73
:1005C0008D839E83AF83B887212F3A814B815C81D5
:1005D0006D2D7E818F819885A4960FB6F894DEBF2D
:1005E0000FBECDBFDF91CF911F910F91FF90EF9084
:1005F000DF90CF90BF90AF909F908F907F906F9043
:100600005F904F903F902F900895CF92DF92EF929E
:10061000FF9220E030E04AE754E40E947A0E6B013A
:100620007C0120E030E0A9010E945B1120E030E075
:1006300040E05FE387FD05C0C701B6010E944A0F95
:1006400004C0C701B6010E94490F0E949F100E947A
:100650001B0E20E030E04AE754E40E942D10FF908A
:10066000EF90DF90CF9008957F928F929F92AF92FC
:10067000BF92CF92DF92EF92FF920F931F93CF938F
:10068000DF9300D000D0CDB7DEB76B017C01809046
:100690001A0190901B01A0901C01B0901D019B01BC
:1006A000AC01C501B4010E94140E87FF03C001E034
:1006B00010E002C00FEF1FEFA7019601C501B401C2
:1006C0000E94140E811102C000E010E085E0782E37
:1006D0000115110509F480C0B801012E000C880B2A
:1006E000990B0E941B0E2FE632E143E85AE30E9469
:1006F0007A0E20911A0130911B0140911C015091FA
:100700001D010E944A0F4B015C016093160170931A
:10071000170180931801909319017092150165E0FB
:1007200082E391E00E947801C501B4010E940503B3
:1007300020E030E04AE754E40E947A0E0E949F10C5
:100740007C836B8342E050E0BE016D5F7F4F82E3AC
:1007500091E00E94F40082E391E00E94410102973F
:10076000D0F3CE0101960E94990069817A81072E0B
:10077000000C880B990B0E941B0E20E030E04AE72A
:1007800054E40E942D100E9405034B015C0160930C
:100790001A0170931B0180931C0190931D01A70106
:1007A00096010E945B11181614F40FEF1FEFA701BA
:1007B0009601C501B4010E94140E87FF02C001E03A
:1007C00010E0A7019601C501B4010E94140E811129
:1007D0007FCF00E010E07CCF0F900F900F900F9034
:1007E000DF91CF911F910F91FF90EF90DF90CF900D
:1007F000BF90AF909F908F907F900895CF92DF929F
:10080000EF92FF9220E030E040E251E40E947A0E45
:100810006B017C0120E030E0A9010E945B1120E027
:1008200030E040E05FE387FD05C0C701B6010E94EC
:100830004A0F04C0C701B6010E94490F0E949F10D1
:100840000E941B0E20E030E040E251E40E942D1097
:10085000FF90EF90DF90CF900895EF92FF920F936B
:100860001F93CF93DF9300D000D000D0CDB7DEB779
:1008700082E08093150162E082E391E00E947801BA
:1008800060911E0170911F018091200190912101C2
:100890000E94FE0320E030E040E251E40E947A0E24
:1008A0000E949F107E836D836091220170912301CD
:1008B00080912401909125010E94FE0320E030E008
:1008C00040E251E40E947A0E0E949F107C836B8369
:1008D00042E050E0BE016D5F7F4F82E391E00E94F5
:1008E000F40042E050E0BE016B5F7F4F82E391E095
:1008F0000E94F40082E391E00E9441010297D0F34C
:10090000CE0101960E949900E980FA80CE010196FD
:100910000E94990009811A81B701FF0C880B990B7D
:100920000E941B0E20E030E040E251E40E942D10B6
:100930000E94FE0360932601709327018093280193
:1009400090932901B801110F880B990B0E941B0E7F
:1009500020E030E040E251E40E942D100E94FE03AE
:1009600060932A0170932B0180932C0190932D01A9
:1009700026960FB6F894DEBF0FBECDBFDF91CF91A4
:100980001F910F91FF90EF9008952F923F924F92F9
:100990005F926F927F928F929F92AF92BF92CF920F
:1009A000DF92EF92FF920F931F93CF93DF93CDB718
:1009B000DEB72C970FB6F894DEBF0FBECDBF6987A8
:1009C0007A878B879C8729013A0180912601909133
:1009D0002701A0912801B091290189839A83AB83D3
:1009E000BC8329853A854B855C85BC01CD010E947D
:1009F000EB016B017C0180912A0190912B01A09168
:100A00002C01B0912D018D839E83AF83B887A30104
:100A10009201BC01CD010E94EB014B015C012985D3
:100A20003A854B855C8569817A818B819C810E94A6
:100A30005B1118161CF091E0998302C0AFEFA983F7
:100A4000A30192016D817E818F8198850E945B1147
:100A500018161CF0B1E0BD8302C0EFEFED83A501D5
:100A60009401C701B6010E945B112AE939E949E9FD
:100A70005EE318160CF06AC0C701B6010E942D1083
:100A80006B017C0120E030E0A9010E945B1120E0B5
:100A900030E040E05FE387FD05C0C701B6010E947A
:100AA0004A0F04C0C701B6010E94490F0E949F105F
:100AB0002B01072E000C880B990B0E941B0E9B012B
:100AC000AC01C501B4010E942D106B017C019B019A
:100AD000AC01C501B4010E942D104B015C0120E066
:100AE00030E0A9010E945B1120E030E040E05FE3CC
:100AF00087FD05C0C501B4010E944A0F04C0C501AD
:100B0000B4010E94490F0E949F103B019AE9892E6F
:100B100099E9992EA92C9EE3B92E00E010E0312C22
:100B2000212C8981082E000C990BAA0BBB0B898301
:100B30009A83AB83BC838D81082E000C990BAA0B82
:100B4000BB0B8D839E83AF83B8877EC0C501B40184
:100B50000E942D104B015C0120E030E0A9010E94B1
:100B60005B1120E030E040E05FE387FD05C0C50198
:100B7000B4010E944A0F04C0C501B4010E94490F8C
:100B80000E949F103B01072E000C880B990B0E94BE
:100B90001B0E9B01AC01C701B6010E942D104B0139
:100BA0005C019B01AC01C701B6010E942D106B01D5
:100BB0007C0120E030E0A9010E945B1120E030E0E0
:100BC00040E05FE387FD05C0C701B6010E944A0F00
:100BD00004C0C701B6010E94490F0E949F102B015B
:100BE0008AE9C82E89E9D82EED2C8EE3F82E95CF10
:100BF00022242394061517050CF04AC06D817E81CE
:100C00008F8198850E941B0E9B01AC01C701B60124
:100C10000E947A0E9B01AC01609122017091230128
:100C200080912401909125010E944A0F6093220136
:100C30007093230180932401909325010E942D0439
:100C4000211029C00F5F1F4F041515058CF669810F
:100C50007A818B819C810E941B0E9B01AC01C50196
:100C6000B4010E947A0E9B01AC0160911E0170914B
:100C70001F0180912001909121010E944A0F6093F1
:100C80001E0170931F018093200190932101B2CF28
:100C900033243394D3CF3320A9F22C960FB6F89493
:100CA000DEBF0FBECDBFDF91CF911F910F91FF909F
:100CB000EF90DF90CF90BF90AF909F908F907F90FC
:100CC0006F905F904F903F902F9008952F923F929A
:100CD0004F925F926F927F928F929F92AF92BF924C
:100CE000CF92DF92EF92FF920F931F93CF93DF93F8
:100CF000CDB7DEB766970FB6F894DEBF0FBECDBF97
:100D00001C012A013B0109831A832B833C8380E168
:100D1000F10111928A95E9F79A01AB01C301B20181
:100D20000E947A0E6B017C0129813A814B815C81A2
:100D3000CA01B9010E947A0E9B01AC01C701B6013C
:100D40000E944A0F2AEB32E54FE55EE30E94490F0D
:100D500027EF3FE344E25EE30E94490F26EB35E8CC
:100D60004FEB5EE30E942D100E94380F6B017C0157
:100D70009B01AC010E94BA11882329F010E01E8A61
:100D80001D8A00E004C01C2DDE8AED8A0F2D612F24
:100D90007E898D89902F0E94281026E53EE04DEC3B
:100DA0005EE30E947A0E20EA3AE14FEE5EE30E9493
:100DB0004A0F4B015C0126E53EE04DEC5EE3C301CA
:100DC000B2010E947A0E6D877E878F87988B612F84
:100DD0007E898D89902F0E9468116D837E838F8319
:100DE000988726E53EE04DEC5EE369817A818B8150
:100DF0009C810E947A0E698B7A8B8B8B9C8BA501D0
:100E00009401C301B2010E947A0E69877A878B87A9
:100E10009C872D813E814F81588569897A898B898C
:100E20009C890E947A0E9B01AC0169857A858B852D
:100E30009C850E944A0F69877A878B879C87A501CA
:100E4000940169817A818B819C810E947A0E4B0189
:100E50005C012D813E814F8158856D857E858F8512
:100E600098890E947A0E9B01AC01C501B4010E94D1
:100E7000490F29853A854B855C850E94C90F21EE73
:100E80003EE245E652E40E947A0EF10160837183EE
:100E90008283938321EE3EE245E652E4612F7E8910
:100EA0008D89902F0E947A0EF10164837583868369
:100EB0009783F7FAF094F7F8F094A7019601C70129
:100EC000B6010E94BA11882319F0C12CD12C7601E9
:100ED000C701B6010E94281026E53EE04DEC5EE316
:100EE0000E947A0E20EA3AE14FEE5EE30E944A0F3A
:100EF0004B015C01C701B6010E9468116D837E83BE
:100F00008F839887A5019401C301B2010E947A0ED4
:100F10002B013C012D813E814F81588569897A8959
:100F20008B899C890E947A0E9B01AC01C301B2019E
:100F30000E944A0F2B013C01A501940169817A812D
:100F40008B819C810E947A0E4B015C012D813E8138
:100F50004F8158856D857E858F8598890E947A0E90
:100F60009B01AC01C501B4010E94490FA30192018C
:100F70000E94C90F21EE3EE245E652E40E947A0E3D
:100F8000F101608771878287938721EE3EE245E613
:100F900052E4C701B6010E947A0EF1016487758799
:100FA00086879787C10166960FB6F894DEBF0FBE9D
:100FB000CDBFDF91CF911F910F91FF90EF90DF9008
:100FC000CF90BF90AF909F908F907F906F905F90E9
:100FD0004F903F902F9008952F923F924F925F92A3
:100FE0006F927F928F929F92AF92BF92CF92DF9239
:100FF000EF92FF920F931F93CF93DF93CDB7DEB79E
:101000006C970FB6F894DEBF0FBECDBF89019A0171
:10101000AB01BC01CE0101960E94660689818D8BD1
:101020009A819E8BAB81AF8BBC81B88FDD80CE80E7
:101030003F802884F9840A851B85EC848D85898FFF
:101040009E859A8FAF85AB8FB889BC8F8091260122
:1010500090912701A0912801B0912901898B9A8B49
:10106000AB8BBC8B2D893E894F89588DBC01CD013E
:101070000E94EB014B015C0140902A0150902B0132
:1010800060902C0170902D012D2D3C2D432D522D63
:10109000C301B2010E94EB019B01AC01C501B40187
:1010A0000E944A0F20E030E040E05FE30E947A0EA9
:1010B0004B015C012F2D302F412F5E2D69897A89DC
:1010C0008B899C890E94EB01698B7A8B8B8B9C8B23
:1010D000298D3A8D4B8D5C8DC301B2010E94EB01CD
:1010E0009B01AC0169897A898B899C890E944A0F8E
:1010F00020E030E040E05FE30E947A0E2B013C01EB
:101100009B01AC01C501B4010E94140E18166CF4C9
:10111000A3019201C501B4010E94140E18164CF4EB
:10112000D98CCA8C3B8C2C8C04C0FD880E891F89FD
:10113000E88C2D2D3C2D432D522D6F2D702F812F9E
:101140009E2D6C960FB6F894DEBF0FBECDBFDF911B
:10115000CF911F910F91FF90EF90DF90CF90BF90B4
:10116000AF909F908F907F906F905F904F903F9047
:101170002F900C94C5044F925F926F927F928F9242
:101180009F92AF92BF92CF92DF92EF92FF920F9316
:101190001F93CF93DF93CDB7DEB7A8970FB6F89420
:1011A000DEBF0FBECDBF69A37AA38BA39CA3690149
:1011B0007A0140902601509027016090280170909C
:1011C000290125E33AEF4EE85CE3C301B2010E9436
:1011D0007A0E4B015C010E942810698F7A8F8B8FE9
:1011E0009C8FC501B4010E9468116D8F7E8F8F8F17
:1011F00098A320912A0130912B0140912C0150910C
:101200002D01C301B2010E944A0F25E33AEF4EE8D7
:101210005CE30E947A0E4B015C010E9428102B01B6
:101220003C01C501B4010E9468116DA37EA38FA388
:1012300098A720EA3AE14FEE5EE3698D7A8D8B8DB7
:101240009C8D0E947A0E4B015C0126E53EE04DEC40
:101250005EE3C301B2010E947A0E9B01AC01C5019D
:10126000B4010E944A0F698F7A8F8B8F9C8F20EA7E
:101270003AE14FEE5EE36D8D7E8D8F8D98A10E94D9
:101280007A0E4B015C0126E53EE04DEC5EE36DA17C
:101290007EA18FA198A50E947A0E9B01AC01C50189
:1012A000B4010E944A0F6D8F7E8F8F8F98A3298D76
:1012B0003A8D4B8D5C8D69A17AA18BA19CA10E9476
:1012C000EB012B013C012D8D3E8D4F8D58A1C701A7
:1012D000B6010E94EB014B015C0129A13AA14BA18F
:1012E0005CA1698D7A8D8B8D9C8D0E945B11181687
:1012F00014F011E001C01FEFA70196016D8D7E8DE6
:101300008F8D98A10E945B11181614F001E001C0A6
:101310000FEF2DEC3CEC4CEC5DE3C501B4010E94F9
:10132000140E181654F02DEC3CEC4CEC5DE3C301AC
:10133000B2010E945B11181654F12DEC3CEC4CEC00
:101340005DE3C301B2010E94140E18165CF02DEC8F
:101350003CEC4CEC5DE3C501B4010E945B11181636
:101360000CF492C02DEC3CEC4CEC5DE3C301B201FB
:101370000E945B1118165CF42DEC3CEC4CEC5DE328
:10138000C501B4010E945B1118160CF4FAC020E0EC
:1013900030E040EF52E4C301B2010E942D102B0156
:1013A0003C01812C912C812F110F990BAA0BBB0BA7
:1013B00089A39AA3ABA3BCA38FEF881A980A99E7D5
:1013C0008916910409F4DDC069A17AA18BA19CA1C1
:1013D0000E941B0EA30192010E947A0E6B017C01F8
:1013E000B401092C000C880B990B0E941B0E9B0169
:1013F000AC01C701B6010E947A0E9B01AC01698D58
:101400007A8D8B8D9C8D0E944A0FAB01BC010D8D96
:101410001E8D2F8D38A1CE0101960E946606A980EF
:10142000BA80CB80DC80ED80FE800F811885298515
:101430003A854B855C856D857E858F8598890E9470
:101440002602298B3A8B4B8B5C8B6D8B7E8B8F8B23
:10145000988F89899A89AB89BC8980931E01909362
:101460001F01A0932001B09321018D899E89AF892E
:10147000B88D8093220190932301A0932401B0930F
:1014800025010E942D0498CF20E030E040EF52E487
:10149000C501B4010E942D102B013C01812C912C1F
:1014A000802F000F990BAA0BBB0B89A39AA3ABA3A8
:1014B000BCA3AFEF8A1A9A0AB9E78B16910409F414
:1014C00060C069A17AA18BA19CA10E941B0EA301FF
:1014D00092010E947A0E6B017C01B401092C000C70
:1014E000880B990B0E941B0E9B01AC01C701B60132
:1014F0000E947A0E9B01AC016D8D7E8D8F8D98A11F
:101500000E944A0F8B019C01498D5A8D6B8D7C8DF9
:10151000CE0101960E946606A980BA80CB80DC804D
:10152000ED80FE800F81188529853A854B855C8585
:101530006D857E858F8598890E942602298B3A8B3E
:101540004B8B5C8B6D8B7E8B8F8B988F89899A8967
:10155000AB89BC8980931E0190931F01A093200149
:10156000B09321018D899E89AF89B88D8093220126
:1015700090932301A0932401B09325010E942D0490
:1015800098CFA8960FB6F894DEBF0FBECDBFDF91FF
:10159000CF911F910F91FF90EF90DF90CF90BF9070
:1015A000AF909F908F907F906F905F904F90089535
:1015B0000E94EE111F920F920FB60F9211242F93DB
:1015C0003F938F939F93AF93BF9380912E01909100
:1015D0002F01A0913001B09131013091140123E02D
:1015E000230F2D3720F40196A11DB11D05C026E85B
:1015F000230F0296A11DB11D2093140180932E018B
:1016000090932F01A0933001B0933101809110018C
:1016100090911101A0911201B09113010196A11DA9
:10162000B11D8093100190931101A0931201B0930A
:101630001301BF91AF919F918F913F912F910F9087
:101640000FBE0F901F9018951F920F920FB60F921A
:1016500011242F933F934F935F936F937F938F93B7
:101660009F93AF93BF93EF93FF9382E391E00E9428
:101670005701FF91EF91BF91AF919F918F917F9112
:101680006F915F914F913F912F910F900FBE0F90EF
:101690001F9018951F920F920FB60F9211242F933F
:1016A0008F939F93EF93FF93E0914201F091430159
:1016B0008081E0914801F091490182FD12C0908142
:1016C00080914B018F5F8F7320914C01821751F0F5
:1016D000E0914B01F0E0EE5CFE4F958F80934B0163
:1016E00001C08081FF91EF919F918F912F910F9079
:1016F0000FBE0F901F901895CF93DF9300D0CDB7FA
:10170000DEB7789484B5826084BD84B5816084BD81
:1017100085B5826085BD85B5816085BD80916E008F
:10172000816080936E0010928100809181008260C0
:1017300080938100809181008160809381008091FD
:1017400080008160809380008091B10084608093EC
:10175000B1008091B00081608093B00080917A00E8
:10176000846080937A0080917A00826080937A000E
:1017700080917A00816080937A0080917A008068FD
:1017800080937A001092C100E0914201F0914301F0
:1017900082E08083E0913E01F0913F011082E09170
:1017A0004001F091410188E0808310924A01E0916C
:1017B0004601F091470186E08083E0914401F09179
:1017C0004501808180618083E0914401F091450171
:1017D000808188608083E0914401F091450180819F
:1017E00080688083E0914401F091450180818F7D84
:1017F000808382E391E00E9441010297D0F3CE0101
:1018000001960E949900C980DA8082E391E00E94EB
:1018100041010297D0F3CE0101960E949900E98020
:10182000FA8082E391E00E9441010297D0F3CE0159
:1018300001960E94990009811A81B601DD0C880B7E
:10184000990B0E941B0E20E030E040E251E40E9420
:101850002D100E94FE032B013C0160932601709322
:1018600027018093280190932901B701FF0C880B71
:10187000990B0E941B0E20E030E040E251E40E94F0
:101880002D100E94FE034B015C0160932A017093AE
:101890002B0180932C0190932D01B801110F880B1F
:1018A000990B0E941B0E20E030E048EC52E40E94AD
:1018B0002D1020E030E048EC52E40E947A0E6B01DB
:1018C0007C0120E030E0A9010E945B1120E030E0C3
:1018D00040E05FE387FD05C0C701B6010E944A0FE3
:1018E00004C0C701B6010E94490F0E949F100E94C8
:1018F0001B0E20E030E048EC52E40E942D10609373
:101900001A0170931B0180931C0190931D0140925A
:101910001E0150921F01609220017092210180925D
:10192000220190922301A0922401B092250161E04E
:1019300082E391E00E94780112E01093150162E0C9
:1019400082E391E00E94780123E333E343E35FE322
:101950006DEC7CEC8CE49EE30E94EC0701E00093CC
:10196000150161E082E391E00E94780161E082E389
:1019700091E00E94780123E333E343E35FE36AE00D
:1019800077ED83EA9EE30E94BB0821EE3AE744E14B
:101990005FE36AE077ED83EA9EE30E94BB0821EEF5
:1019A0003AE744E15FE36DEC7CEC8CE49EE30E945B
:1019B000BB0823E333E343E35FE36DEC7CEC8CE4AF
:1019C0009EE30E94BB086FE872EC85EF9DE30E94E6
:1019D000340323E333E343E35FE36AE077ED83EA31
:1019E0009EE30E94BB0821EE3AE744E15FE36AE030
:1019F00077ED83EA9EE30E94BB0821EE3AE744E1DB
:101A00005FE36DEC7CEC8CE49EE30E94BB0823E377
:101A100033E343E35FE36DEC7CEC8CE49EE30E94F4
:101A2000BB0861E082E391E00E9478011093150108
:101A300062E082E391E00E94780160E070E0CB0117
:101A40000E94340323E333E343E35FE36AE077ED8B
:101A500083EA9EE30E94EC070093150161E082E3B4
:101A600091E00E94780161E082E391E00E947801B8
:101A70006FE872EC85EF9DE30E94340361E082E33E
:101A800091E00E9478011093150162E082E391E0F9
:101A90000E94780160E070E0CB010E94340361E0B5
:101AA00082E391E00E9478011093150162E082E3E5
:101AB00091E00E94780121EE3AE744E15FE36AE0B9
:101AC00077ED83EA9EE30E94EC070093150161E045
:101AD00082E391E00E94780161E082E391E00E945C
:101AE00078016FE872EC85EF9DE30E94340361E0BA
:101AF00082E391E00E9478011093150162E082E395
:101B000091E00E94780160E070E0CB010E94340314
:101B100061E082E391E00E9478011093150162E098
:101B200082E391E00E94780121EE3AE744E15FE32D
:101B30006DEC7CEC8CE49EE30E94EC0700931501B5
:101B400061E082E391E00E94780161E082E391E04C
:101B50000E9478016FE872EC85EF9DE30E943403E8
:101B600061E082E391E00E9478011093150162E048
:101B700082E391E00E94780160E070E0CB010E9476
:101B8000340361E082E391E00E94780162E082E345
:101B900091E00E94780161E082E391E00E94780187
:101BA0001093150162E082E391E00E94780120E049
:101BB00030E0A901CA01B9010E94C50483E0809305
:101BC000150163E082E391E00E947801FFCFE2E338
:101BD000F1E01382128288EE93E0A0E0B0E084830B
:101BE0009583A683B78384E091E09183808385EC1D
:101BF00090E09587848784EC90E09787868780ECD7
:101C000090E0918B808B81EC90E0938B828B82ECC7
:101C100090E0958B848B86EC90E0978B868B118E71
:101C2000128E138E148E08950E94560E08F481E0D1
:101C30000895E89409C097FB3EF4909580957095BF
:101C400061957F4F8F4F9F4F9923A9F0F92F96E908
:101C5000BB279395F695879577956795B795F1117D
:101C6000F8CFFAF4BB0F11F460FF1BC06F5F7F4F1A
:101C70008F4F9F4F16C0882311F096E911C077232C
:101C800021F09EE8872F762F05C0662371F096E835
:101C9000862F70E060E02AF09A95660F771F881F04
:101CA000DAF7880F9695879597F90895990F0008A8
:101CB000550FAA0BE0E8FEEF16161706E807F9071E
:101CC000C0F012161306E407F50798F0621B730BB9
:101CD000840B950B39F40A2661F0232B242B252B3A
:101CE00021F408950A2609F4A140A6958FEF811DDD
:101CF000811D08950E948D0E0C94FE0E0E94F00E20
:101D000038F00E94F70E20F0952311F00C94E70EA6
:101D10000C94ED0E11240C94320F0E940F0F70F3EF
:101D2000959FC1F3950F50E0551F629FF001729F80
:101D3000BB27F00DB11D639FAA27F00DB11DAA1F8F
:101D4000649F6627B00DA11D661F829F2227B00DDC
:101D5000A11D621F739FB00DA11D621F839FA00D67
:101D6000611D221F749F3327A00D611D231F849FB7
:101D7000600D211D822F762F6A2F11249F5750400E
:101D80009AF0F1F088234AF0EE0FFF1FBB1F661F89
:101D9000771F881F91505040A9F79E3F510580F052
:101DA0000C94E70E0C94320F5F3FE4F3983ED4F3AB
:101DB000869577956795B795F795E7959F5FC1F7F6
:101DC000FE2B880F911D9695879597F9089597F9A1
:101DD0009F6780E870E060E008959FEF80EC0895D1
:101DE00000240A94161617061806090608950024FA
:101DF0000A9412161306140605060895092E039474
:101E0000000C11F4882352F0BB0F40F4BF2B11F4E7
:101E100060FF04C06F5F7F4F8F4F9F4F089557FD46
:101E20009058440F551F59F05F3F71F04795880F48
:101E300097FB991F61F09F3F79F0879508951216DF
:101E400013061406551FF2CF4695F1DF08C016168B
:101E500017061806991FF1CF86957105610508943C
:101E60000895E894BB2766277727CB0197F9089553
:101E70009F939F770E94D5100F90002042F49058B6
:101E8000A2EA2AED3FE049E450E40E94610F0C947D
:101E9000FE0E5058BB27AA270E94610F0C94FE0E1D
:101EA0000E94F00E38F00E94F70E20F039F49F3FA8
:101EB00019F426F40C94ED0E0EF4E095E7FB0C9467
:101EC000E70EE92F0E940F0F58F3BA176207730746
:101ED0008407950720F079F4A6F50C94310F0EF4E1
:101EE000E0950B2EBA2FA02D0B01B90190010C012A
:101EF000CA01A0011124FF27591B99F0593F50F442
:101F0000503E68F11A16F040A22F232F342F442799
:101F1000585FF3CF469537952795A795F040539591
:101F2000C9F77EF41F16BA0B620B730B840BBAF061
:101F30009150A1F0FF0FBB1F661F771F881FC2F7CC
:101F40000EC0BA0F621F731F841F48F487957795E0
:101F50006795B795F7959E3F08F0B0CF9395880F9A
:101F600008F09927EE0F9795879508950E94F00E37
:101F700060F080E891E009F49EEF0E94F70E28F0EF
:101F800040E851E071F45EEF0CC00C94ED0E0C943F
:101F9000310FE92FE0780E940F0F40F3092E052A38
:101FA000B1F3261737074807590738F00E2E07F800
:101FB000E02569F0E025E0640AC0EF6307F80094CB
:101FC00007FADB01B9019D01DC01CA01AD01EF9304
:101FD0000E9444100E94FE0E0E94F90F5F9155234B
:101FE00039F02BED3FE049E450FD49EC0C944A0FE9
:101FF0000895DF93DD27B92FBF7740E85FE316161A
:10200000170648075B0718F4D92F0E9460119F93A9
:102010008F937F936F930E94B611E8E6F0E00E94E1
:10202000F5100E94FE0E2F913F914F915F910E94FB
:102030008D0EDD2351F09058A2EA2AED3FE049ECE5
:102040005FE3D0785D270E94610FDF910C94FE0E54
:102050000E941E11E3950C9447110E9441100C94AC
:10206000FE0E0E94F70E58F00E94F00E40F029F488
:102070005F3F29F00C94E70E51110C94320F0C9431
:10208000ED0E0E940F0F68F39923B1F3552391F3DE
:10209000951B550BBB27AA2762177307840738F0D7
:1020A0009F5F5F4F220F331F441FAA1FA9F335D034
:1020B0000E2E3AF0E0E832D091505040E695001CE8
:1020C000CAF72BD0FE2F29D0660F771F881FBB1FA2
:1020D000261737074807AB07B0E809F0BB0B802D80
:1020E000BF01FF2793585F4F3AF09E3F510578F0AC
:1020F0000C94E70E0C94320F5F3FE4F3983ED4F358
:10210000869577956795B795F7959F5FC9F7880F7F
:10211000911D9695879597F90895E1E0660F771FD1
:10212000881FBB1F621773078407BA0720F0621B62
:10213000730B840BBA0BEE1F88F7E09508950E948D
:10214000A6106894B1110C94320F08950E94170FD5
:1021500088F09F5798F0B92F9927B751B0F0E1F068
:10216000660F771F881F991F1AF0BA95C9F714C018
:10217000B13091F00E94310FB1E008950C94310F0D
:10218000672F782F8827B85F39F0B93FCCF3869551
:1021900077956795B395D9F73EF4909580957095AE
:1021A00061957F4F8F4F9F4F0895DF93CF931F937C
:1021B0000F938B01EC01E5E9F0E00E94F5100E941D
:1021C000FE0E9801AE018B01EC0160E070E080E84A
:1021D0009FE30E94490F0E9476119801AE010F9172
:1021E0001F91CF91DF910C948D0EDF93CF931F93AE
:1021F0000F93FF92EF92DF927B018C01689406C0EF
:10220000DA2EEF010E948D0EFE01E894A591259132
:10221000359145915591A6F3EF010E94610FFE01A2
:102220009701A801DA9469F7DF90EF90FF900F9182
:102230001F91CF91DF9108950C94ED0E0E94170F1E
:10224000D8F3E894E0E0BB279F57F0F02AED3FE099
:1022500049EC06C0EE0FBB0F661F771F881F28F0E2
:10226000B23A62077307840728F0B25A620B730B05
:10227000840BE3959A9572F7803830F49A95BB0FEA
:10228000661F771F881FD2F790480C94C111EF93F7
:10229000E0FF07C0A2EA2AED3FE049EC5FEB0E94B5
:1022A000610F0E94FE0E0F90039401FC9058EDEB1D
:1022B000F0E00C94D4110E94560E08F48FEF0895AC
:1022C0009B01AC0160E070E080E89FE30C942D106E
:1022D0009F930E941E110F9007FCEE5F0C94471114
:1022E00019F416F40C94ED0E0C94BF110E94170F04
:1022F000B8F39923C9F3B6F39F57550B87FF0E9494
:10230000CD110024A0E640EA90018058569597959B
:1023100028F4805C660F771F881F20F02617370788
:10232000480730F4621B730B840B202931294A2B98
:10233000A69517940794202531254A2758F7660F4C
:10234000771F881F20F026173707480730F4620BE5
:10235000730B840B200D311D411DA09581F7B90130
:10236000842F9158880F9695879508959B01AC010D
:102370000C947A0E0E94560E880B990B08959F3F7D
:1023800031F0915020F4879577956795B795880F30
:10239000911D9695879597F9089591505040660F35
:1023A000771F881FD2F708959F938F937F936F9322
:1023B000FF93EF939B01AC010E947A0EEF91FF9186
:1023C0000E94F5102F913F914F915F910C947A0EDE
:1023D000EE0FFF1F0590F491E02D099481E090E04D
:0A23E000F8940C94F311F894FFCF69
:1023EA00000000007801F40041011F013301BF0120
:00000001FF
